:020000040800F2
:1000000028460120ED010008B51A0108F9DF0008B3
:10001000511401082912000811AA0108000000006B
:10002000000000000000000000000000513B01083B
:1000300061320008000000000124010809430108A2
:10004000070200080702000807020008070200086C
:10005000070200080702000807020008070200085C
:10006000070200080702000807020008092D00081F
:10007000192D0008292D0008392D0008492D0008E8
:10008000070200080702000807020008070200082C
:1000900085A80108D9360008E936000807020008DB
:1000A000070200080702000807020008070200080C
:1000B00007020008070200080702000807020008FC
:1000C00007020008070200080702000807020008EC
:1000D00007020008A9710108B9710108C971010876
:1000E00007020008070200080702000807020008CC
:1000F00007020008070200080702000807020008BC
:1001000007020008070200080702000807020008AB
:100110005D5401086D540108070200080702000839
:10012000070200080702000807020008070200088B
:10013000070200080702000807020008070200087B
:10014000070200080702000807020008070200086B
:10015000070200080702000807020008070200085B
:10016000070200080702000807020008070200084B
:100170000702000807020008D94301080702000827
:10018000070200080702000807020008070200082B
:100190000702000800000000F936000809370008CF
:1001A000193700082937000807020008070200086D
:1001B0000702000807020008592D0008070200087E
:1001C00007020008070200080702000807020008EB
:1001D0000702000807020008DFF80CD000F03AFC24
:1001E00000480047FDE001082846012006488047F6
:1001F00006480047FEE7FEE7FEE7FEE7FEE7FEE70C
:10020000FEE7FEE7FEE7FEE7C5430108D901000867
:100210002DE9F05F0546002092469B46884606463B
:10022000814640241BE0284641464746224600F0CE
:10023000B0FA53465A46C01A914110D31146184697
:10024000224600F097FA2D1A67EB01084F46224626
:100250000120002100F08EFA17EB00094E41201E0C
:10026000A4F10104DFDC484631462A464346BDE896
:10027000F09F40EA01039B0703D009E008C9121F61
:1002800008C0042AFAD203E011F8013B00F8013B50
:10029000521EF9D27047D2B201E000F8012B491E7C
:1002A000FBD270470022F6E710B513460A46044613
:1002B0001946FFF7F0FF204610BD421C10F8011B45
:1002C0000029FBD1801A7047034611F8012B00F872
:1002D000012B002AF9D11846704730B50546002099
:1002E000034600E05B1C934205D2EC5CC85C201A1C
:1002F00001D1002CF6D130BD2DE9FE4F804681EAB8
:100300000300C00F0C46009021F0004123F000458F
:10031000B8EB0200A94105D24046214690461C4652
:100320000B46024623F00040104347D0270DC7F389
:100330000A00C3F30A510290401A019040286BDA78
:10034000C3F3130040F4801B0098924620B10023B1
:10035000D2EB030A63EB0B0B01985946C0F1400244
:10036000504600F007FA06460D4650465946019A97
:1003700000F01FFA10EB08006141002487EA1152D7
:1003800084EAE7731A4340D0009A62B3019A012AC3
:100390004FEA075215DC001B61EB02014FF00042EF
:1003A00002EA0752CDE90042001C41F580113246B5
:1003B0002B4600F07FFA03B0BDE8F08F404621469F
:1003C000F9E7001B61EB0201001C41F580130018E6
:1003D0005B412018A2F5001747EB030140EAD570F6
:1003E000B6196D4111E06D084FEA360645EAC07551
:1003F0004FEA0752001B61EB0201001C41F580111E
:1004000049084FEA30000019514132462B4603B0EB
:10041000BDE8F04F00F03FBA0098012240000023F1
:10042000D0EB020263EBE073009821464FEAE074E0
:10043000B8EB000061EB0401E9E783F000435BE700
:1004400081F0004158E72DE9FE4F81EA030404F0F2
:10045000004421F0004100944FF0000B23F00043D2
:1004600050EA01045ED052EA03045BD0C3F30A549D
:10047000C1F30A552C44A4F2F3340194A0FB0254B6
:10048000C1F3130141F48011C3F3130343F4801348
:1004900001FB024400FB034E840A970A44EA81549C
:1004A00047EA8357A4FB076802958D0A05FB078579
:1004B0004FEA932C04FB0C542705029D4FEA065883
:1004C00047EA1637B5EB08056EEB070C870E920E60
:1004D00047EA811742EA8312A7FB0201B6EB0B0140
:1004E00064EB00042B0D43EA0C335E1844EB1C5004
:1004F000DA465146E7FB0201C5F313044FEA0B331A
:1005000043EA14534FEA0432019C43EA0603A4F180
:100510000C040294009CCDE900B400F0CBF903B0C8
:10052000BDE8F08F00200146F9E72DE9F04D81EAA2
:10053000030404F0004B21F0004514464FF0000A7C
:1005400023F0004150EA050220D054EA01021DD0F8
:10055000C5F30A570246C5F31303C1F31300C1F3F1
:100560000A5640F4801543F48013A7EB0608101BCD
:10057000D64608F2FD3873EB050002D308F10108F6
:1005800001E092185B41B8F1000F03DA0020014648
:10059000BDE8F08D00204FF48011064684460EE041
:1005A000171B73EB050705D3121B63EB050306430B
:1005B0004CEA010C49084FEA300092185B4150EABE
:1005C0000107EDD152EA030012D082EA040083EA67
:1005D0000501084305D0101BAB4106D201220023C0
:1005E00006E000224FF0004302E06FF001025310DA
:1005F0001AEB06004CEB085110EB0A0041EB0B0123
:10060000BDE8F04D00F047B930B5041E71F10004AB
:1006100004DB4FF00044404264EB0101141E73F10F
:10062000000405DB1C464FF00043524263EB040319
:10063000101A8B4101D3012030BD002030BD0EB512
:10064000C10F80EAE0700844CA07002140F233433A
:100650008DE80E000A460B4600F02CF903B000BDF1
:100660000EB540F2334102910021CDE900110A4656
:100670000B4600F01FF903B000BD70B5C1F30A527C
:1006800001F000450024C1F3130140F2FF3341F4AF
:1006900080119A4201DA002070BD40F233439A4241
:1006A000A2F2334203DC524200F073F800E09040C3
:1006B0002C43F1D0404270BDC1F30A5210B5C1F3D2
:1006C000130140F2FF3341F480119A4201DA002015
:1006D00010BD40F233439A42A2F2334203DC52424D
:1006E00000F057F810BD904010BD00F0004230F00F
:1006F00000400AD0C10D01F56071C0F3160042EA56
:100700000151C2084007114370470020014670475D
:1007100001F0004330B421F0004150EA010206D05C
:100720000A0DA2F56072C1F31301002A02DC30BC8D
:1007300000207047440F44EAC104C100E01830BCF7
:1007400000EBC25000F047B830B50B460146002020
:100750002022012409E021FA02F59D4205D303FA83
:1007600002F5491B04FA02F52844151EA2F1010204
:10077000F1DC30BD202A04DB203A00FA02F100202F
:1007800070479140C2F1200320FA03F319439040CF
:100790007047202A04DB203A21FA02F0002170473A
:1007A00021FA02F3D040C2F12002914008431946D9
:1007B0007047202A06DBCB17203A41FA02F043EAC1
:1007C000E07306E041FA02F3D040C2F1200291400A
:1007D0000843194670470029A8BF7047401C4900CC
:1007E00008BF20F00100704710B4B0FA80FC00FA96
:1007F0000CF050EA010404BF10BC704749B1CCF1C1
:10080000200421FA04F411FA0CF118BF012121434C
:100810000843A3EB0C01CB1D4FEA00614FEA102007
:1008200042BF002010BC704700EBC35010440029A9
:10083000A4BF10BC7047401C490008BF20F0010055
:1008400010BC7047F0B400F0004221F0004120F0ED
:100850000040CE0DC30DC1F3160141F40001C0F3F9
:1008600016004C42154640F40000761E09E010EBDD
:10087000440002D582F0004240428842F7D840004E
:100880005B1EB342F9DA18B1F0BC0021FFF7ACBF30
:100890002846F0BC704710B5141E73F1000408DA46
:1008A000401C41F1000192185B411A4301D120F034
:1008B000010010BD2DE9F04D92469B4611B1B1FAF1
:1008C00081F202E0B0FA80F220329046FFF752FF48
:1008D00004460F4640EA0A0041EA0B0153465A46D5
:1008E000084313D0114653EA010019D0C8F1400261
:1008F0005046FFF74EFF05460E46504659464246C3
:10090000FFF738FF084305D0012004E020463946B0
:10091000BDE8F08D0020054346EAE0762C433743DE
:100920000A986305E40AA0EB08000022FD0A44EAE5
:1009300047540A3002D500200146E9E701051019A5
:100940006941DDE9084500196941BDE8F04DA2E7BC
:100950002DE9F04D00231A461B1A8A4103DB0020C3
:100960000146BDE8F08DC1F30A52C1F3130141F411
:1009700080154FF0000BD10702D100186D41521EB7
:100980000027044640F2FF11384601EB620A3E465A
:100990008046024600204FF48011FFF7FAFEC2198C
:1009A0007141BB1846EB0100B4EB030C75EB000C76
:1009B00004D3E41A65EB000517460E46241908F126
:1009C00001006D4180463428E3DDF91946EB06004D
:1009D000091BA84103D24FF0FF32134601E0002269
:1009E00013461BEB070046EB0A51BDE8F04DFFF73D
:1009F00052BFC1F30A52C1F3130140F2FF3341F475
:100A000080119A4202DA00200146704740F23343D7
:100A10009A42A2F2334202DC5242FFF7BABEFFF71B
:100A2000A9BE000030B5041E71F1000404DB4FF0D4
:100A30000044404264EB0101141E73F1000405DB25
:100A40001C464FF00043524263EB0403994208BF37
:100A5000904230BD1CB509480090094801900546F8
:100A6000009C06E0E06840F0010394E80700984726
:100A70001034AC42F6D3FFF7B3FB0000B41C0208FD
:100A8000D41C020870B58C1810F8015B15F0070330
:100A900001D110F8013B2A1106D110F8012B03E017
:100AA00010F8016B01F8016B5B1EF9D12B0705D41F
:100AB0000023521E0DD401F8013BFAE710F8013B68
:100AC000CB1A921C03E013F8015B01F8015B521E84
:100AD000F9D5A142D8D3002070BD000085B08DEDBE
:100AE000040A0390CDED020A8DED011ACDED001A36
:100AF0009DED040A039890ED001A30EE410A9DED39
:100B0000001A9DED012A21EE021AB4EE410AF1EE1F
:100B100010FA17DDFFE7039890ED000AB5EE400AE2
:100B2000F1EE10FA0EDCFFE79DED000A9DED012AC3
:100B3000039890ED001A20EE020A30EE010A80EDD3
:100B4000000A84E09DED040A039890ED001A30EE4F
:100B5000410A9DED001A9DED022A21EE021AB4EE23
:100B6000410AF1EE10FA17DDFFE7039890ED000A55
:100B7000B5EE400AF1EE10FA0EDDFFE79DED000A3A
:100B80009DED022A039890ED001A20EE020A30EE45
:100B9000010A80ED000A59E09DED040A039890EDEA
:100BA000001A30EE410A9DED001A9DED022A21EE59
:100BB000421AB4EE410AF1EE10FA17DAFFE7039891
:100BC00090ED000AB5EE400AF1EE10FA0EDCFFE7F8
:100BD0009DED001A9DED022A039890ED000A21EE8A
:100BE000021A30EE410A80ED000A2EE09DED040A63
:100BF000039890ED001A30EE410A9DED001A9DED2C
:100C0000012A21EE421AB4EE410AF1EE10FA17DA87
:100C1000FFE7039890ED000AB5EE400AF1EE10FAF6
:100C20000EDDFFE79DED001A9DED012A039890ED82
:100C3000000A21EE021A30EE410A80ED000A03E0BC
:100C4000049803990860FFE7FFE7FFE7FFE705B0B7
:100C50007047000082B08DED010ACDED000A9DEDD8
:100C6000011A40F20801C2F20001D1F83A0000EE88
:100C7000100A30EE010A10EE100AC1F83A009DED9C
:100C8000001AD1F83E0000EE100A30EE010A10EE14
:100C9000100AC1F83E0002B07047000080B584B071
:100CA000039041F20400CEF2000090ED000AB8EE8D
:100CB000400A9FED161A80EE010ABCEEC00A10EE43
:100CC000100A40F20801C2F200010191C1F80500CA
:100CD00044F68041C2F200010020088044F67E41C3
:100CE000C2F2000101200870039940F25450C2F290
:100CF000000002902F22FFF7BCFA01990298D0F869
:100D00000100C1F8010004B080BD00BF00002A430B
:100D100080B58AB040F25451C2F20001D1F80E0001
:100D2000D1F81610049100EE100A44F64440C2F2C5
:100D3000000090ED011A30EE410A10EE100AFFF7A4
:100D4000D4FC0246049805920A46059942EC101B11
:100D500052EC101B9FED2E0B53EC10CBDB0F63F30B
:100D6000DF7242EC101B8DED060BFFF7BEFC9DED14
:100D7000061B41EC100B51EC110B53EC102BFFF741
:100D800043FCE8BBFFE740F25451C2F20001D1F846
:100D90001200D1F81A10009100EE100A44F64440F7
:100DA000C2F2000090ED021A30EE410A10EE100A75
:100DB000FFF79BFC0246009801920A46019942EC1B
:100DC000101B52EC101B9FED120B53EC10CBDB0FE2
:100DD00063F3DF7242EC101B8DED020BFFF785FC15
:100DE0009DED021B41EC100B51EC110B53EC102B41
:100DF000FFF70AFC20B9FFE701208DF8270003E088
:100E000000208DF82700FFE79DF827000AB080BD7D
:100E1000000000000000000080B58AB009900020AA
:100E20008DF82300FFE79DF82300042814DCFFE77A
:100E300040F25800C2F2000000689DF8232040F202
:100E4000BC51C2F2000141F82200FFE79DF82300E7
:100E500001308DF82300E6E7FFE702F045FF40F29E
:100E60000801C2F200010220087040F25800C2F2EC
:100E700000000068C1F8310045F2BD30C2F2000048
:100E80000078632808DCFFE740F20801C2F20001A5
:100E9000012081F8350007E040F20801C2F20001AC
:100EA000002081F83500FFE744F64440C2F200001C
:100EB0000290416840F20802C2F200020692C2F8B3
:100EC0000D10C16881F00041C2F81510816881F0F1
:100ED0000041C2F811100169C2F8191090ED010A21
:100EE0009FED3A1A8DED031A20EE010A1EF04CFF19
:100EF00002989DED031A8DED010A40F21061C2F2D5
:100F00000001049191ED0E0A8DED000A90ED010AA9
:100F100020EE010A1EF0D4FD9DED003A02989DEDF1
:100F2000031A0499069AB0EE402A9DED010A91ED4C
:100F30000F4A22EE042A20EE030A30EE020A10EED7
:100F4000101AC2F8251090ED010A20EE010A1EF0D9
:100F50001BFF02989DED031A04998DED070A91ED90
:100F60000F0A8DED050A90ED010A20EE010A1EF030
:100F7000A7FD04999DED052A0698B0EE401A9DED57
:100F8000070A91ED0E3A21EE031A20EE020A30EE26
:100F9000410A10EE101AC0F8291041F20401CEF2F5
:100FA000000191ED000AB8EE400A9FED091A80EEAB
:100FB000010ABCEEC00A10EE101AC0F80910422156
:100FC00019F0CCFC01201DF0FDF846E735FA8E3C07
:100FD00000002A4380B541F20000C4F60000082159
:100FE000012206F0A7FE80BD80B541F20000C4F6E4
:100FF00000000821002206F09DFE80BD80B541F270
:101000000000C4F600001021012206F093FE80BD0E
:1010100080B541F20000C4F600001021002206F065
:1010200089FE80BD80B586B005908DF813100598B7
:1010300040F25401C2F20001086046F6A061C2F21B
:1010400000010291002008701CF0CEFD02990246BA
:101050000878104308701CF0A5FE02990246087833
:101060001043087044F6F860C2F2000003904FF697
:101070000001C0F607011422FFF7FBF8039890ED7A
:10108000000AB7EE001AB4EE410AF1EE10FA48D0A9
:10109000FFE79DF81300012843D1FFE740F2845099
:1010A000C2F20000009000F04FFE009944F6F86292
:1010B000C2F2000201924FF07E501060486A506008
:1010C000886A9060C86AD060086B106191ED0C1A54
:1010D0009FED260A80EE010A81ED080A0020C4F285
:1010E000202088617F2002F0EFFB019802684368AE
:1010F0004FF60000C0F6070002F0C0FD01988268BC
:10110000C3684FF60800C0F6070002F0B7FD01986B
:10111000026943694FF61000C0F6070002F0AEFD09
:101120001CE044F6F860C2F20000426840F28451CC
:10113000C2F200014A6282688A62C268CA620069B9
:10114000086391ED0C1A9FED090A80EE010A81ED0A
:10115000080A0020C4F220208861FFE746F6A0605C
:10116000C2F20000007806B080BD00BFC3F51C418C
:1011700080B584B08DF80F0002918DF807209DF89E
:101180000F0040F0800000F027F8FFE79DF807000F
:1011900070B1FFE7552000F01FF80299087002981F
:1011A000013002909DF8070001388DF80700EDE747
:1011B00004B080BD80B582B08DF8070000919DF825
:1011C000070040F0800000F007F8552000F004F818
:1011D0000099087002B080BD80B582B08DF807001C
:1011E00040F25400C2F2000000686A464FF47A717F
:1011F00011600DF107010DF10602012309F0F0FE67
:101200009DF8060002B080BD80B582B08DF8070061
:101210008DF806109DF80700FFF7DEFF9DF8060029
:10122000FFF7DAFF02B080BDFFE7FEE780B582B0CE
:1012300047F67840C2F2000001900AF03DFB0198A9
:1012400000210BF0A7F802B080BD000081B08DF83E
:1012500003009DF8030040F2D851C2F2000108706B
:1012600001B0704783B08DF80B009DF80B0001466C
:101270000091152800F2C2810099DFE811F01600F4
:101280001C002F00430057006B007F009300A70055
:10129000BB00CF00E300F7000B011F013301470142
:1012A0005B016F0183019701AB013220ADF80800AB
:1012B00064200190A2E13220ADF80800BDF80810CA
:1012C0004FF68060C0F62120B0FBF1F042F22D31E4
:1012D000C0F2FA01A0FB011001908FE13220ADF8BD
:1012E0000800BDF808104FF68060C0F62120B0FB62
:1012F000F1F049F2C551C0F6EE51A0FB0110000912
:1013000001907BE13220ADF80800BDF808104FF6DF
:101310008060C0F62120B0FBF1F048F2C701C0F6B2
:101320006941A0FB01100009019067E13220ADF88E
:101330000800BDF808104FF68060C0F62120B0FB11
:10134000F1F048F20941C0F6BC31A0FB01100009E0
:10135000019053E13220ADF80800BDF808104FF6B7
:101360008060C0F62120B0FBF1F04BF61541C0F2D1
:101370009C21A0FB0110800801903FE13220ADF8D4
:101380000800BDF808104FF68060C0F62120B0FBC1
:10139000F1F042F29501C0F64F11A0FB01100009D7
:1013A00001902BE13220ADF80800BDF808104FF68F
:1013B0008060C0F62120B0FBF1F049F69D71C0F6C7
:1013C0004A01A0FB01100009019017E13220ADF89D
:1013D0000800BDF808104FF68060C0F62120B0FB71
:1013E000F1F04EF6E941C0F2D471A0FB0110000902
:1013F000019003E13220ADF80800BDF808104FF667
:101400008060C0F62120B0FBF1F04AF63711C0F63B
:10141000F451A0FB011040090190EFE03220ADF83B
:101420000800BDF808104FF68060C0F62120B0FB20
:10143000F1F042F69111C0F23761A0FB01100009F2
:101440000190DBE03220ADF80800BDF808104FF63F
:101450008060C0F62120B0FBF1F048F20941C0F6EF
:10146000BC31A0FB011040090190C7E03220ADF86B
:101470000800BDF808104FF68060C0F62120B0FBD0
:10148000F1F04BF61541C0F29C21A0FB0110C00801
:101490000190B3E03220ADF80800BDF808104FF617
:1014A0008060C0F62120B0FBF1F042F29501C0F659
:1014B0004F11A0FB0110400901909FE03220ADF8D0
:1014C0000800BDF808104FF68060C0F62120B0FB80
:1014D000F1F049F69D71C0F64A01A0FB01104009E8
:1014E00001908BE03220ADF80800BDF808104FF6EF
:1014F0008060C0F62120B0FBF1F04EF6E941C0F269
:10150000D471A0FB01104009019077E03220ADF8C2
:101510000800BDF808104FF68060C0F62120B0FB2F
:10152000F1F049F6D561C0F6F151A0FB0110800938
:10153000019063E03220ADF80800BDF808104FF6C6
:101540008060C0F62120B0FBF1F042F69111C0F2AC
:101550003761A0FB0110400901904FE03220ADF847
:101560000800BDF808104FF68060C0F62120B0FBDF
:10157000F1F04BF6EB21C1F27471A0FB0110C00930
:1015800001903BE03220ADF80800BDF808104FF69E
:101590008060C0F62120B0FBF1F04BF61541C0F29F
:1015A0009C21A0FB01100009019027E03220ADF83A
:1015B0000800BDF808104FF68060C0F62120B0FB8F
:1015C000F1F042F29501C0F64F11A0FB0110800925
:1015D000019013E03220ADF80800BDF808104FF676
:1015E0008060C0F62120B0FBF1F049F69D71C0F695
:1015F0004A01A0FB011080090190FFE7BDF8080037
:10160000013847F67841C2F2000109688862FFE7B5
:101610000198013847F67841C2F200010A68D062A9
:1016200001980138C860FFE70198400847F6784103
:10163000C2F200010968486303B0704780B547F6FD
:101640007840C2F2000000210AF0A4FE80BD000034
:1016500080B547F67840C2F2000000210AF0E6FFAC
:1016600080BD000080B59AB01990FFF7DFFDFFE75D
:1016700040F2D850C2F200000078014616911228BC
:1016800000F243821699DFE811F0130020008B006E
:10169000A700C300F40040024002400240024002A2
:1016A000100136015C018201A801CE01F4011A0289
:1016B00000201590FFF7D6FD159840F2D851C2F2E0
:1016C00000010870FFF7C4FF1FE2FFF7B7FF082013
:1016D000FFF7C8FDC82010901CF074FD0020149086
:1016E000FFF7C0FD322011901CF06CFD09200F9017
:1016F000FFF7B8FD10981CF065FD1498FFF7B2FDD8
:1017000011981CF05FFD0A20FFF7ACFD10981CF04B
:1017100059FD1498FFF7A6FD11981CF053FD0F9882
:10172000FFF7A0FD10981CF04DFD1498FFF79AFDEF
:1017300011981CF047FD0C201290FFF793FD1098B4
:101740001CF040FD1498FFF78DFD11981CF03AFD38
:101750000E20FFF787FD10981CF034FD1498FFF75A
:1017600081FD11981CF02EFD0D201390FFF77AFDDE
:101770004FF4FA701CF026FD1298FFF773FDFA2063
:101780001CF020FD1398FFF76DFD40F2EE201CF0D9
:1017900019FD149840F2D851C2F200010870B4E16A
:1017A000FFF74CFF0820FFF75DFDC8200E901CF0EE
:1017B00009FD0A20FFF756FD0E981CF003FD0C20D2
:1017C000FFF750FD0E981CF0FDFC40F2D851C2F21C
:1017D00000010020087098E1FFF730FF0C20FFF7B0
:1017E00041FDC8200D901CF0EDFC0A20FFF73AFDEA
:1017F0000D981CF0E7FC0820FFF734FD0D981CF055
:10180000E1FC40F2D851C2F20001002008707CE1F6
:10181000FFF714FF0E200990FFF724FD32200A90F5
:101820001CF0D0FC00200C90FFF71CFD96200B90C4
:101830001CF0C8FC0998FFF715FD0A981CF0C2FCC3
:101840000C98FFF70FFD0B981CF0BCFC0998FFF7F4
:1018500009FD0A981CF0B6FC0C98FFF703FD0B98E5
:101860001CF0B0FC0C9840F2D851C2F20001087094
:101870004BE1FFF7E3FE0E20FFF7F4FCC8200890D1
:101880001CF0A0FC0C20FFF7EDFC08981CF09AFC63
:101890000A20FFF7E7FC08981CF094FC40F2D851AE
:1018A000C2F20001002008702FE1FFF7C7FE002000
:1018B0008DF86300FFE79DF86300002814DCFFE764
:1018C0000C20FFF7CFFC642007901CF07BFC00206D
:1018D000FFF7C8FC07981CF075FCFFE79DF8630054
:1018E00001308DF86300E6E740F2D851C2F2000102
:1018F0000020087009E1FFF7A1FE00208DF86200CA
:10190000FFE79DF86200012814DCFFE70C20FFF7D9
:10191000A9FC642006901CF055FC0020FFF7A2FCF7
:1019200006981CF04FFCFFE79DF8620001308DF82F
:101930006200E6E740F2D851C2F2000100200870D0
:10194000E3E0FFF77BFE00208DF86100FFE79DF8E4
:101950006100022814DCFFE70C20FFF783FC642001
:1019600005901CF02FFC0020FFF77CFC05981CF074
:1019700029FCFFE79DF8610001308DF86100E6E782
:1019800040F2D851C2F2000100200870BDE0FFF71C
:1019900055FE00208DF86000FFE79DF860000328E9
:1019A00014DCFFE70C20FFF75DFC642004901CF0C2
:1019B00009FC0020FFF756FC04981CF003FCFFE72D
:1019C0009DF8600001308DF86000E6E740F2D851E4
:1019D000C2F200010020087097E0FFF72FFE002000
:1019E0008DF85F00FFE79DF85F00042814DCFFE737
:1019F0000C20FFF737FC642003901CF0E3FB002071
:101A0000FFF730FC03981CF0DDFBFFE79DF85F005B
:101A100001308DF85F00E6E740F2D851C2F20001D4
:101A20000020087071E0FFF709FE00208DF85E00CD
:101A3000FFE79DF85E00052814DCFFE70C20FFF7A8
:101A400011FC642002901CF0BDFB0020FFF70AFC93
:101A500002981CF0B7FBFFE79DF85E0001308DF89F
:101A60005E00E6E740F2D851C2F2000100200870A3
:101A70004BE0FFF7E3FD00208DF85D00FFE79DF8E8
:101A80005D00062814DCFFE70C20FFF7EBFB642069
:101A900001901CF097FB0020FFF7E4FB01981CF07D
:101AA00091FBFFE79DF85D0001308DF85D00E6E7F2
:101AB00040F2D851C2F200010020087025E0FFF783
:101AC000BDFD00208DF85C00FFE79DF85C00072855
:101AD00014DCFFE70C20FFF7C5FB642000901CF02E
:101AE00071FB0020FFF7BEFB00981CF06BFBFFE7CB
:101AF0009DF85C0001308DF85C00E6E740F2D851BB
:101B0000C2F2000100200870FFE70A201CF05AFB17
:101B1000AEE5000080B58AB00990002002900390E5
:101B200004900590012101910691079040F2FF7009
:101B30000890099803A904F0D5FD029B099869460D
:101B40000B600222114604F029FE0199029A0998BD
:101B500004F074FC0AB080BD80B584B047F2E85050
:101B6000C2F20000019005F01BFD47F24C60C2F28A
:101B70000000029005F014FD47F2B060C2F20000D0
:101B8000039005F00DFD0198FFF7C4FF0298FFF7E1
:101B9000C1FF0398FFF7BEFF04B080BD80B58EB0D3
:101BA0000D90ADF832100B92BDF83200029000207B
:101BB00003900490082105910690079008900990E1
:101BC0000A90FFE70D9804F03DFF50B9FFE7019838
:101BD000013001900198B0F57A7F01D9FFE700E06C
:101BE000F0E70D980B9A02A904F02EFD0EB080BD0F
:101BF00084B08DF80F000291ADF806209DF80F001B
:101C00000146009123281DD80099DFE801F0121346
:101C10001415161B1B1B1B1B1B1B1B1B1B1B1B1B26
:101C20001B1B1B1B1B1B1B1B1B1B1B1B1B1B17180B
:101C3000191A08E007E006E005E004E003E002E02E
:101C400001E000E0FFE7002004B07047002070478B
:101C500080B582B046F6B460C2F20000009046F251
:101C6000F051C2F200010022019215F0E7FD009848
:101C700045F6F051C2F2000115F0C6FD019802B020
:101C800080BD000080B584B003900291039946F6B0
:101C9000B460C2F20000019015F0B6FD019815F095
:101CA0005DFD03980299096818F040FE002004B019
:101CB00080BD000083B0029001918DF803200020C8
:101CC0008DF802009DF9020003B0704780B586B020
:101CD0000490ADF80E1000208DF80D0046F6B460AB
:101CE000C2F20000D0F8BC0202900298D0F81402B0
:101CF00020B1FFE701208DF8170013E00499BDF82B
:101D00000E2046F6B460C2F20000019015F096FD78
:101D1000019815F081FE8DF80D009DF80D008DF8ED
:101D20001700FFE79DF8170006B080BD80B547F2A9
:101D3000B060C2F2000044210022FFF72FFF0EF036
:101D400067FCFFF709FF80BD80B592B005A902913D
:101D50001190002010900F9001F094F940F208606B
:101D6000C2F2000080ED000AFFE701F08BF940F2BB
:101D70000860C2F2000090ED001A30EE410AB2EEA7
:101D8000041AB4EE410AF1EE10FA1ADDFFE71199D8
:101D900043F6AC00C3F622304862119941F2B060BC
:101DA000C3F6CE1088621199C862119941F23F6062
:101DB000C4F21B10086311990020C4F2202088612E
:101DC000F6E29FEDE40A01F0E5F8119900200863BE
:101DD00011994862119988621199C862ADF8120090
:101DE000FFE7BDF8120040F28E01C2F2000109883F
:101DF000884280F2E781FFE7FFF7F6F89220FFF7CD
:101E0000EBF912200FA901910622FFF7B1F9FFF7B4
:101E1000E1F89DF83C009DF83D1040EA0120ADF846
:101E20003A00BDF93A0000EE100AB8EEC00A40F2DE
:101E30004C00C2F2000090ED001A20EE010A119948
:101E400081ED000A9DF83E109DF83F2041EA0221F5
:101E5000ADF83A10BDF93A1000EE101AB8EEC00A0B
:101E600090ED001A20EE010A119981ED010A9DF80A
:101E700040109DF8412041EA0221ADF83A10BDF929
:101E80003A1000EE101AB8EEC00A90ED001A20EEDB
:101E9000010A119880ED020A119890ED001A90ED58
:101EA000012A90ED020A22EE022A21EE011A31EEF9
:101EB000021A20EE000A30EE010A1EF06AF80298BB
:101EC00080ED020A90ED021A119890ED0C0A30EEA6
:101ED000010A80ED0C0AFFF79BF801990020082207
:101EE000FFF746F9FFF78AF89DF83C000F285FD10D
:101EF000FFE79DF83E009DF83F1040EA0120ADF855
:101F00003A00BDF93A0000EE100AB8EEC00A40F2FD
:101F10005000C2F2000090ED001A20EE010A119963
:101F200081ED030A119991ED031A91ED090A30EE42
:101F3000010A81ED090A9DF840109DF8412041EA0F
:101F40000221ADF83A10BDF93A1000EE101AB8EEC1
:101F5000C00A90ED001A20EE010A119981ED040AE1
:101F6000119991ED041A91ED0A0A30EE010A81ED02
:101F70000A0A9DF842109DF8432041EA0221ADF87B
:101F80003A10BDF93A1000EE101AB8EEC00A90ED02
:101F9000001A20EE010A119880ED050A119890EDC3
:101FA000051A90ED0B0A30EE010A80ED0B0AFFE7EF
:101FB000BDF8120038BBFFE7079806900798059018
:101FC00000208DF81100FFE79DF81100022819DCB0
:101FD000FFE711989DF8112000EB8200C0680BA963
:101FE00041F8220011989DF8112000EB8200C06892
:101FF00008A941F82200FFE79DF8110001308DF893
:102000001100E1E764E0029890ED020A90ED011AF8
:10201000B4EE410AF1EE10FA03DDFFE707980690EF
:10202000FFE7029890ED020A90ED001AB4EE410A23
:10203000F1EE10FA03DAFFE707980590FFE70020BA
:102040008DF81000FFE79DF8100002283FDCFFE745
:1020500011989DF8101000EB810090ED030A0BA879
:1020600000EB810090ED001AB4EE410AF1EE10FA97
:102070000ADDFFE711989DF8102000EB8200C06890
:102080000BA941F82200FFE711989DF8101000EB12
:10209000810090ED030A08A800EB810090ED001A82
:1020A000B4EE410AF1EE10FA0ADAFFE711989DF852
:1020B000102000EB8200C06808A941F82200FFE769
:1020C000FFE79DF8100001308DF81000BBE7FFE737
:1020D000029890ED010A90ED001A30EE410A46F6A2
:1020E000A460C2F2000080ED000A00208DF80F000D
:1020F000FFE79DF80F0002281DDCFFE79DF80F1099
:102100000BA800EB810090ED000A08A800EB81000D
:1021100090ED001A30EE410A46F6A860C2F20000C7
:1021200000EB810080ED000AFFE79DF80F00013011
:102130008DF80F00DDE746F6A460C2F2000090EDD6
:10214000000AB6EE001AB4EE410AF1EE10FA2DDCE8
:1021500002E000BF0AD7A33B46F6A860C2F2000027
:1021600090ED000A9FED981AB4EE410AF1EE10FAD4
:102170001CDCFFE746F6A860C2F2000090ED010A01
:102180009FED911AB4EE410AF1EE10FA0EDCFFE772
:1021900046F6A860C2F2000090ED020A9FED8A1A8E
:1021A000B4EE410AF1EE10FA01DDFFE70AE09FED1F
:1021B000870A00F0EFFEFFE7BDF812000130ADF82E
:1021C00012000EE640F28E00C2F20000008800EE1F
:1021D000100AB8EE401A119890ED0C0A80EE010A30
:1021E00080ED0C0A00208DF80E00FFE79DF80E0030
:1021F00002281BDCFFE740F28E00C2F200000088DC
:1022000000EE100AB8EE401A11989DF80E1000EB7F
:10221000810090ED090A80EE010A80ED090AFFE7CE
:102220009DF80E0001308DF80E00DFE7FEF7DCFEB2
:10223000A220FEF7D1FF22200FA90222FEF798FF6D
:10224000FEF7C8FE9DF83C009DF83D10C00040EA36
:102250005110ADF83A00BDF93A00B0F5806F07DBD8
:10226000FFE7BDF83A00A0F50060ADF83A00FFE7DF
:10227000BDF93A0000EE100AB8EEC00AB4EE001A3A
:1022800020EE010AB3EE071A30EE010A119880ED34
:10229000060A46F69861C2F20001088801300880FB
:1022A000FFE746F6A460C2F2000090ED000A0120AC
:1022B000B6EE001AB4EE410AF1EE10FA009071DCAD
:1022C000FFE7119890ED0C0A9FED411A30EE010ADC
:1022D000B0EEC00A0120B6EE001AB4EE410AF1EEEB
:1022E00010FA00905EDCFFE746F6A860C2F200003C
:1022F00090ED000A01209FED341AB4EE410AF1EE90
:1023000010FA00904EDCFFE746F6A860C2F200002B
:1023100090ED010A01209FED2C1AB4EE410AF1EE76
:1023200010FA00903EDCFFE746F6A860C2F200001B
:1023300090ED020A01209FED241AB4EE410AF1EE5D
:1023400010FA00902EDCFFE7119890ED090AB0EE2C
:10235000C00A01209FED1F1AB4EE410AF1EE10FAF7
:1023600000901FDCFFE7119890ED0A0AB0EEC00A5A
:1023700001209FED181AB4EE410AF1EE10FA009018
:1023800010DCFFE7119890ED0B0AB0EEC00A9FED4C
:10239000111A0020B4EE410AF1EE10FAC8BF012074
:1023A0000090FFE70098C00700287FF4DEACFFE74D
:1023B000119890ED0C1A9FED080A80EE010A80ED4D
:1023C000080A12B080BD00BF9A99193E6F12033AF5
:1023D000CDCC1CC10AD7233CC3F51C4180B5A2B0AB
:1023E00021904FF47A701BF0EDFE40F21060C2F2C3
:1023F00000001C9000F5D270B1EE040A8DED1D0AAC
:102400009FEDDF2A8DED1E2ADFEDDE2ACDED1F2A9E
:10241000F0EE420AB0EE421AF0EE421A0FF0F0FE71
:102420001C989DED1D0A9DED1E2ADDED1F2A00F56D
:10243000F870F0EE420AB0EE421AF0EE421A0FF0D7
:10244000DFFE1C989DED1D0A9DED1E2ADDED1F2A65
:1024500000F50F70F0EE420AB0EE421AF0EE421AAA
:102460000FF0CEFE1C989DED1D0A9DED1E2ADDEDA0
:102470001F2A00F52270F0EE420AB0EE421AF0EE8A
:10248000421A0FF0BDFEFFE740F21060C2F20000FA
:102490001A905C3000F0AAFD1A988DED200A44F6DF
:1024A000E041C2F200011091D1F828E0D1F860C0FB
:1024B000D1F89830D1F8D0208EF0004E00EE10EA1E
:1024C00001EE10CA30EE410A01EE103A30EE010A78
:1024D00001EE102A30EE010A9FEDAB1A20EE010A40
:1024E00080ED0B0AD1F828E0D1F860C0D1F898301F
:1024F000D1F8D02002EE10EA00EE10CA30EE420A07
:1025000002EE103A30EE420A02EE102A30EE020AD3
:1025100020EE010A80ED0C0AD1F828C00B6ED1F82C
:102520009820D1F8D0108CF0004C00EE10CA02EECA
:10253000103A30EE420A02EE102A30EE420A02EE63
:10254000101A30EE420A20EE010A9FED901A80EE3A
:10255000010A80ED0D0A9DED202A90ED0B0A90ED09
:10256000111A20EE020A30EE010A80ED110A9DEDEB
:10257000202A90ED0C0A90ED121A20EE020A30EE9D
:10258000010A80ED120A9DED202A90ED0D0A90EDD2
:10259000131A20EE020A9FED7E2A8DED162A20EEF8
:1025A000020A30EE010A80ED130A90ED0B0A8DED60
:1025B000130A90ED180A1DF0E7FB1A988DED120A28
:1025C00090ED0C0A8DED110A90ED180A1DF078FAC5
:1025D0009DED111A9DED122A1A98B0EE403A9DED2C
:1025E000130A21EE031A20EE020A30EE010A80EDF2
:1025F0000F0A90ED0B0A8DED170A90ED180A1DF0E9
:102600005FFA1A988DED150A90ED0C0A8DED140AFB
:1026100090ED180A1DF0B8FB9DED141A9DED153ACA
:102620009DED162A1A98B0EE404A9DED170A21EE4C
:10263000041A20EE030A30EE410A80ED0E0A416BC7
:1026400001649DED203A90ED0E0A90ED141A20EEF3
:10265000030A30EE010A80ED140A9DED203A90ED58
:102660000F0A90ED151A20EE030A30EE010A80EDF4
:10267000150A9DED203A90ED100A90ED161A20EE05
:10268000030A20EE020A30EE010A80ED160A45F236
:102690008421C2F200011B9191ED030ADDED201AA5
:1026A0000830F2EE080ACDED180A9FED3A1A8DEDCA
:1026B000191AFEF713FADDED180A9DED191A1A988A
:1026C0001B9991ED040ADDED201A0C30FEF706FA95
:1026D0001A981B9991ED050ADDED201A1030DFEDF7
:1026E0002E0A9FED2E1AFEF7F9F91A991B988A689F
:1026F0004A61CA688A610A69CA6190ED0D0A9FED54
:10270000281A20EE010A9FED271A80EE010A81EDBA
:10271000180A90F83B00052846D1FFE740F2106008
:10272000C2F200000E900021016290ED061A90EDB9
:10273000180AB7EE082A21EE021A8DED0F1A1DF0C5
:10274000BFF90E988DED0D0A90ED050A8DED0C0A7E
:1027500090ED180A1DF018FB9DED0C1A9DED0D2A49
:102760000E99B0EE403A9DED0F0A21EE031A20EECD
:10277000020A30EE010A81ED090A0869886263E005
:102780000000000000007A46EE87103939B4483E58
:10279000E02E654200004842E1E57442201A7F4382
:1027A000DB0F4940000034C340F21060C2F2000069
:1027B0000A9090ED050A8DED070A90ED180A1DF0BC
:1027C0007FF90A988DED060A90ED060A8DED050A4F
:1027D00090ED180A1DF0D8FA9DED051A9DED062A18
:1027E0000A98B0EE403A9DED070A21EE031A20EE5A
:1027F000020A30EE010A80ED080A90ED060A8DED1E
:102800000B0A90ED180A1DF05BF90A988DED090A84
:1028100090ED050A8DED080A90ED180A1DF0B4FA46
:102820009DED081A9DED092A0A99B0EE403A9DEDFA
:102830000B0A21EE031A20EE020A30EE410A81ED66
:10284000090A08698862FFE740F21060C2F20000DE
:10285000049090ED082A90ED091A90ED0A0AB1EE65
:10286000411A31EE421A9FEDDD2A20EE020A30EEC7
:10287000010A80ED190A90ED083A90ED091A90EDE1
:102880000A0A31EE431A20EE020A30EE010A80ED08
:102890001A0A90ED081A90ED093A90ED0A0A31EE05
:1028A000431A20EE020A30EE010A80ED1B0A90ED79
:1028B000083A90ED091A90ED0A0A31EE031A20EE5B
:1028C000020A30EE010A80ED1C0A90ED190A9FED14
:1028D000C41A8DED021A80EE010A44F6E041C2F2FC
:1028E00000010391896A00EE901A00F5D2700FF092
:1028F000ADFC9DED021A0399049890ED1A0A80EE42
:10290000010A096E00EE901A00F5F8700FF09EFCB7
:102910009DED021A0399049890ED1B0A80EE010ABE
:10292000D1F8981000EE901A00F50F700FF08EFCA1
:102930009DED021A0399049890ED1C0A80EE010A9D
:10294000D1F8D01000EE901A00F522700FF07EFC46
:1029500045F28420C2F2000090F83B00052813D114
:10296000FFE740F21060C2F2000090ED790A9FED9F
:102970009D1A20EE010A80ED790A90ED8C0A20EE76
:10298000010A80ED8C0AFFE745F28420C2F20000C4
:1029900090F83E00012840F09D80FFE745F2BD30F1
:1029A000C2F20000408900EE100AB8EEC02A45F2DB
:1029B000A830C2F20000008900EE100AB8EEC03A5A
:1029C0009FED890A30EE430AB9EE041A20EE010A9F
:1029D00030EE020A45F28420C2F2000090F83A106C
:1029E0001922514301EE101AB8EEC11AB3EE0E4A85
:1029F00031EE041A21EE031A81EE021A30EE010ABA
:102A000040F21061C2F2000181ED010A90ED100A5E
:102A1000B2EE001AB4EE410AF1EE10FA27DBFFE73E
:102A200045F28420C2F2000090ED100AB2EE0C1ABA
:102A3000B4EE410AF1EE10FA19DCFFE745F284200A
:102A4000C2F2000090ED100ABAEE001A30EE010A50
:102A5000B1EE081A80EE011A40F21060C2F20000D6
:102A600090ED010A20EE010A80ED010A31E045F205
:102A70008420C2F2000090ED100AB2EE001AB4EE0B
:102A8000410AF1EE10FA23DAFFE745F2BD30C2F257
:102A90000000408900EE100AB8EEC01A45F2A830D6
:102AA000C2F20000008900EE100AB8EEC02A9FEDC5
:102AB0004E0A30EE420AB9EE042A20EE020A30EE47
:102AC000010A40F21060C2F2000080ED010AFFE747
:102AD000FFE722E045F2BD30C2F20000408900EE7F
:102AE000100AB8EEC01A45F2A830C2F20000008900
:102AF00000EE100AB8EEC02A9FED3B0A30EE420A03
:102B0000B9EE042A20EE020A30EE010A40F210600B
:102B1000C2F2000080ED010AFFE740F21060C2F24D
:102B2000000090ED010AB5EE400AF1EE10FA07DA66
:102B3000FFE740F21061C2F2000100204860FFE7A9
:102B400040F21060C2F2000090ED010A44F6E0414C
:102B5000C2F200010FF086FC45F28420C2F20000B0
:102B6000007848B3FFE740F21060C2F2000090ED39
:102B7000793A90ED8C2A90ED9F1A90EDB20ABDEE55
:102B8000C33A13EE102ABDEEC22A12EE103ABDEE81
:102B9000C11A11EE100ABDEEC00A10EE10CA694645
:102BA000C1F804C0086047F2E850C2F200004FF4D8
:102BB00000710EF0E5FC0DE0684600234360036001
:102BC00047F2E850C2F200004FF400711A460EF0CE
:102BD000D7FCFFE701201BF0F5FA55E439B448BEF5
:102BE000EE87103A9A99993E0000344280B584B03D
:102BF00003900020029040F25630C2F200000068BC
:102C000046F63C61C2F20001886332201BF0DAFA1A
:102C1000FFE711F00FFB029849F69811C1F69911E0
:102C20004CF6CD42CCF6CC4200FB02104FEA7000CD
:102C3000884201D8FFE7FFE7029849F69812C1F6EB
:102C400099124CF6CD41CCF6CC4100FB01204FEA65
:102C5000B0004CF6CC41C0F6CC41884220D8FFE70A
:102C600044F65010C2F20000826846F60461C2F2D7
:102C700000010A6042684A60D0F8AC00886046F6FD
:102C80003C60C2F2000001903822FDF7F2FA01998F
:102C900047F68060C2F200003C220AF0A3FFFFE783
:102CA00002984BF65002C0F21E5245F62941CCF272
:102CB0008F2100FB01204FEAB00045F62841C0F209
:102CC0008F21884201D8FFE7FFE7029842F2D842FD
:102CD000C0F2061247F6D501C2F2E96100FB0120FD
:102CE0004FEAF00048F63611C0F24101884203D89D
:102CF000FFE700200290FFE70298013002900120D8
:102D00001BF060FA85E7000080B547F22820C2F288
:102D1000000003F099F980BD80B547F2E820C2F2C7
:102D2000000003F091F980BD80B547F2A830C2F2EF
:102D3000000003F089F980BD80B547F26840C2F217
:102D4000000003F081F980BD80B547F22850C2F23F
:102D5000000003F079F980BD80B547F2E820C2F2A7
:102D6000000003F06BF880BD84B003900398006806
:102D700040F20741C4F20201884211D8FFE740F651
:102D80000000C4F2020000900398007808384CF666
:102D9000CD41CCF6CC41A0FB01100009019012E01E
:102DA00040F62000C4F20200009003980078083832
:102DB0004CF6CD41CCF6CC41A0FB0101082000EB44
:102DC00011100190FFE700980290029803994A6C55
:102DD00022F0030210448864039940F68000C4F294
:102DE0000200C864019800F01F0101208840039987
:102DF000086504B07047000082B0019001984068F7
:102E000000F07F000090009940F6FC00C4F2020040
:102E100000EB810001994865019940F64010C4F229
:102E2000020088650098013800F01F0101208840E9
:102E30000199C86502B0704784B003900291019275
:102E400000930398C16C006D48600398406D28B1F1
:102E5000FFE70398816DC06D4860FFE70398016C40
:102E6000406C00F01F0201209040486000980399D8
:102E70000968486003988068102809D1FFE7019825
:102E8000039909688860029803990968C86008E096
:102E90000298039909688860019803990968C860D5
:102EA000FFE704B07047000086B08DED050ACDED58
:102EB000040A8DED031A02909DED030A9DED041A9C
:102EC00030EE410A8DED010A049800909DED050A4F
:102ED0009DED001A30EE410A029901208840013828
:102EE00001EE100AB8EEC11A20EE010A9DED011A9A
:102EF00080EE010ABDEEC00A10EE100A06B070475F
:102F000086B005908DED040ACDED030A02919DED8A
:102F1000030A9DED041A30EE410A8DED010A049872
:102F200000909DED050AB8EEC00A9DED011A20EE55
:102F3000010A029901208840013801EE100AB8EE1A
:102F4000C11A80EE010A9DED001A30EE010A06B0AA
:102F50007047000081B041F20400CEF2000000682A
:102F60000090009840F20061C2F2000109688842B6
:102F700008D2FFE740F20461C2F2000108680130A4
:102F80000860FFE7009840F20061C2F200010860AB
:102F900001B0704783B08DED020A41F20400CEF219
:102FA00000000068019002980090FFE741F20400E1
:102FB000CEF2000000680199401A00EE100AB8EE47
:102FC000400A9DED001A40F2E850C2F2000090ED78
:102FD000002AB8EE422A21EE021AB4EE410AF1EEBE
:102FE00010FA01DAFFE7E1E703B0704780B584B07B
:102FF000039041F20400CEF20000006802900298B3
:1030000003990968401A00EE100AB8EE400A40F22F
:10301000E850C2F2000090ED001AB8EE411A80EEBE
:10302000010A8DED010A029803990860FFF792FFEB
:103030009DED010A04B080BD80B582B000F092F829
:1030400045F2E060C2F20000016883884FF47A72B2
:1030500001FB023100EE101AB8EE401AC08800EEF3
:10306000100AB8EEC00A9FED062A20EE020A30EEE2
:10307000010A8DED010A9DED010A02B080BD00BF7D
:103080006F12833A80B582B000F06CF845F2E060D0
:10309000C2F2000090ED000AB8EE401A818800EEFE
:1030A000101AB8EEC00A9FED0B2A20EE020A30EE8D
:1030B000011AC08800EE100AB8EEC00A9FED062A79
:1030C00020EE020A30EE010A8DED010A9DED010AA3
:1030D00002B080BD6F12833ABD37863581B0009053
:1030E0004EF6FC51CEF20001086840F08070086096
:1030F00041F20401CEF200010020086041F200021A
:10310000CEF20002116841F001011160009944F211
:103110004022C0F20F024A4340F2E851C2F20001DD
:103120000A600A6844F6D353C1F26203A2FB033279
:10313000920940F2EC53C2F200031A6009684DF69E
:103140008362C4F21B32A1FB0221890C40F2F052CF
:10315000C2F20002116040F20461C2F20001086094
:1031600001B07047B0B586B041F20400CEF2000065
:1031700000680590FFF7EEFE40F20460C2F2000026
:1031800001680598002302934FF0FF3C1A46E1FBCB
:103190000C0240F2F851C2F2000100914A6008604E
:1031A0000868496840F2E854C2F200042268FDF75A
:1031B0002FF8029B02468C46009944F61810C2F282
:1031C0000000C0F804C00260D1F800C04968D0F81F
:1031D00000E042682468AEFB04E502FB0452BCEB4D
:1031E0000E0C61EB020244F62011C2F200010391C1
:1031F000C1F800C04A60006845F2E062C2F2000215
:10320000049210600868496840F2EC52C2F2000271
:1032100001921268FCF7FCFFDDF804C0029B049ADF
:10322000014603989180016840689288DCF800C0EC
:1032300002FB0CF28A1A60F1000044F62811C2F277
:1032400000010A6048600868496840F2F052C2F222
:1032500000021268FCF7DCFF0499C88006B0B0BD1C
:103260007047000080B58AB00990FFE745F20C2056
:10327000C2F200004188013141804088B0F5FA7FF8
:103280000ADBFFE745F20C21C2F2000100200870C2
:103290004FF4FA704880FFE745F20C20C2F20000BC
:1032A0000078C8B9FFE710F0C7F845F20C21C2F268
:1032B00000010791002008904887C1F83600C1F846
:1032C0003200C1F82E00C1F82A00C1F82600C1F86A
:1032D0002200C1F81E00FFE744F68040C2F2000061
:1032E0000188013101800088B0F5FA7F0EDBFFE72D
:1032F00044F67E41C2F200010020087044F680418D
:10330000C2F200014FF4FA700880FFE740F2DA5091
:10331000C2F2000001880131018040F2DC52C2F2A9
:10332000000211880131118040F2DE52C2F2000227
:103330001188013111800088652813DBFFE70DF04B
:103340003BF947F2E850C2F20000069004F028F979
:103350000698FEF7DFFB40F2DA51C2F200010020CE
:103360000880FFE740F2DC50C2F2000000886528C8
:1033700013DBFFE70DF04CF947F24C60C2F200009E
:10338000059004F00DF90598FEF7C4FB40F2DC51FE
:10339000C2F2000100200880FFE740F2DE50C2F2D6
:1033A00000000088652813DBFFE70DF05DF947F2A8
:1033B000B060C2F20000049004F0F2F80498FEF746
:1033C000A9FB40F2DE51C2F2000100200880FFE7B5
:1033D00044F6E040C2F20000418E01314186408E49
:1033E000642808DBFFE744F6E041C2F20001002058
:1033F00081F83400FFE744F6E040C2F20000408E5E
:103400006F2807DBFFE744F6E041C2F200016420C9
:103410004886FFE744F6E040C2F20000B0F86A10C8
:103420000131A0F86A10B0F86A00642808DBFFE7F1
:1034300044F6E041C2F20001002081F86C00FFE791
:1034400044F6E040C2F20000B0F86A006F2808DBE2
:10345000FFE744F6E041C2F200016420A1F86A00EF
:10346000FFE744F6E040C2F20000B0F8A2100131DC
:10347000A0F8A210B0F8A200642808DBFFE744F629
:10348000E041C2F20001002081F8A400FFE744F609
:10349000E040C2F20000B0F8A2006F2808DBFFE7AE
:1034A00044F6E041C2F200016420A1F8A200FFE767
:1034B00044F6E040C2F20000B0F8DA100131A0F8A2
:1034C000DA10B0F8DA00642808DBFFE744F6E041E0
:1034D000C2F20001002081F8DC00FFE744F6E04082
:1034E000C2F20000B0F8DA006F2808DBFFE744F60C
:1034F000E041C2F200016420A1F8DA00FFE744F6DF
:10350000E040C2F20000B0F882110131A0F882114F
:10351000B0F88201642808DBFFE744F6E041C2F21C
:103520000001002081F88401FFE744F6E040C2F288
:103530000000B0F882016F2808DBFFE744F6E041A5
:10354000C2F200016420A1F88201FFE744F6E040E6
:10355000C2F20000B0F8BA110131A0F8BA11B0F807
:10356000BA01642808DBFFE744F6E041C2F200013B
:10357000002081F8BC01FFE744F6E040C2F2000001
:10358000B0F8BA016F2808DBFFE744F6E041C2F269
:1035900000016420A1F8BA01FFE744F6E040C2F25E
:1035A0000000B0F84A110131A0F84A11B0F84A0100
:1035B000642808DBFFE744F6E041C2F20001002086
:1035C00081F84C01FFE744F6E040C2F20000B0F899
:1035D0004A016F2808DBFFE744F6E041C2F2000130
:1035E0006420A1F84A01FFE744F6E040C2F200007F
:1035F000B0F8F2110131A0F8F211B0F8F20164282C
:1036000008DBFFE744F6E041C2F20001002081F848
:10361000F401FFE744F6E040C2F20000B0F8F20126
:103620006F2808DBFFE744F6E041C2F200016420A6
:10363000A1F8F201FFE744F6E040C2F20000B0F862
:1036400012110131A0F81211B0F81201642808DB40
:10365000FFE744F6E041C2F20001002081F81401C6
:10366000FFE744F6E040C2F20000B0F812016F2814
:1036700008DBFFE744F6E041C2F200016420A1F854
:103680001201FFE744F6E040C2F20000B0F8120178
:103690006E2815D1FFE747F24C60C2F2000002909D
:1036A000062101910EF03AF8012003901AF08AFDEC
:1036B000019902980EF046F803981AF083FDFFE78F
:1036C00001201AF07FFDD1E581B0EFF3108072B6D2
:1036D0000090FFE7FEE7000080B547F2E850C2F235
:1036E000000003F0BFF980BD80B547F2E850C2F298
:1036F000000003F0B7F980BD80B547F24C60C2F21C
:10370000000003F0AFF980BD80B547F24C60C2F213
:10371000000003F0A7F980BD80B547F2B060C2F2A7
:10372000000003F09FF980BD80B547F2B060C2F29F
:10373000000003F097F980BD83B002904AF2004088
:10374000C4F2000000900298006846F60001C4F23E
:103750000001884205D1FFE7009800F55470009001
:10376000FFE70298006846F60041C4F20001884273
:1037700005D1FFE7009800F5D4600090FFE70098BE
:103780000299086402980068D0F8800020F4F810CC
:10379000029A1168526B40EA0240C1F8800000981A
:1037A00070300299486402980068D0F8800020F0D8
:1037B0007060029A1168926B40EA0260C1F8800062
:1037C0000098B03002998864009800F5C47002999E
:1037D000C864009800F5187002990865009800F513
:1037E0001E700299486500980190FFE701980099C2
:1037F00001F55471884208D2FFE701990020086062
:10380000FFE7019804300190F0E703B07047000033
:1038100088B007900691059204930698406848B9CD
:10382000FFE70698016882680069104340EA81401A
:10383000039009E006980168826800691043084314
:1038400040F080400390FFE70698D0F820C0C168A0
:1038500042698369C06940EA0C601843104340EA3A
:10386000014002900798406D049901EBC10100EB03
:10387000C1000190039801990860019804300190FB
:10388000029801990860019804300190002000908E
:10389000FFE700980699CA6841F20871C0F6020174
:1038A000895C88420DD2FFE705980099405801993C
:1038B0000860019804300190FFE700980430009000
:1038C000E7E708B07047000080B588B08DF81F00AA
:1038D00004F02CF8FFE742F21001C4F202014FF4A9
:1038E00000400860FFE7002002900390022104914D
:1038F0009DF81F100591012106918DF80700FFE743
:103900009DF807001D280EDCFFE703A802A903F0BD
:103910008BFE08B9FFE706E0FFE79DF807000130DE
:103920008DF80700ECE703F053FF08B080BD0000FE
:1039300081B040F23040C2F20000007F8DF80300F9
:103940009DF80300012805D0FFE79DF80300032838
:103950001FD1FFE742F20001C4F20201086820F41F
:1039600000700860FFE742F20001C4F2020108683B
:1039700040F400600860086820F400600860FFE719
:1039800042F20001C4F20201086840F400700860CD
:10399000FFE79DF80300022805D0FFE79DF803002C
:1039A000032817D1FFE7FFE742F20001C4F202014A
:1039B000086840F480500860086820F4805008606F
:1039C000FFE742F20001C4F20201086840F480609F
:1039D0000860FFE740F23041C2F2000100200877A2
:1039E00001B0704781B0009042F22000C4F20200A2
:1039F0000068400200281ED5FFE79DF80000C007C0
:103A000048B1FFE742F21401C4F20201086840F035
:103A100004000860FFE79DF800008007002809D532
:103A2000FFE742F21401C4F20201086840F40040CA
:103A30000860FFE709E042F21401C4F202010868DD
:103A400048F2040210430860FFE742F21401C4F296
:103A50000201086840F48030086001B0704700003F
:103A600082B00190009142F22000C4F2020000688E
:103A70004002002809D4FFE742F21401C4F2020117
:103A8000086820F40060086017E09DF80000C00797
:103A900048B1FFE742F21401C4F20201086820F4C1
:103AA0000060086008E042F21401C4F202010868F4
:103AB00040F400600860FFE7FFE742F21401C4F23F
:103AC0000201086820F47E709DF8042040EAC200DC
:103AD0000860086840F002000860086840F4803020
:103AE000086002B07047000084B003900193009218
:103AF00042F21401C4F20201086840F001000860BB
:103B0000009803990860BFF36F8F0198039948608C
:103B100004B0704789B00590049140208DF80F00E3
:103B2000059802900498019042F21401C4F2020137
:103B3000086840F480200860EFF310800690069833
:103B40000090EFF3108072B60790FFE701980068CD
:103B500002990860029804300290019804300190A4
:103B60009DF80F0001388DF80F00FFE79DF80F005A
:103B70000028EBD1FFE700980890089880F31088A0
:103B800009B0704780B584B0029004F0E9F8019064
:103B9000FFE742F21000C4F202000068C0030028F0
:103BA0000DD5FFE704F0DCF80199401A029988422C
:103BB00004D9FFE703208DF80F005AE0E9E742F24D
:103BC0001000C4F2020000684CF2FA310840009084
:103BD000009860B3FFE7009A40F23041C2F2000162
:103BE000486810434860FFE79DF8030010F0F00FAD
:103BF0000BD0FFE7009800F0704242F21801C4F2C7
:103C00000201086810430860FFE70098000148B10E
:103C1000FFE7009820F0704042F21001C4F2020168
:103C20000860FFE7FFE701208DF80F0021E0012089
:103C300050B9FFE742F21800C4F20200006800F039
:103C40000100012808D010E042F21000C4F2020086
:103C50000068C00748B1FFE7FFE742F21001C4F275
:103C6000020101200860FFE7FFE700208DF80F0048
:103C7000FFE79DF80F0004B080BD000080B586B05E
:103C800005900393029203F051FEFFE742F2100108
:103C9000C4F202014FF400400860FFE7FFE742F280
:103CA0001001C4F202014FF480300860FFE70020E9
:103CB0008DF80700FFE79DF807001D2810DCFFE7DF
:103CC0000599029A039B002003F09AFD08B9FFE7CB
:103CD00006E0FFE79DF8070001308DF80700EAE7EE
:103CE00003F076FD06B080BD80B584B002A80090D8
:103CF00045F2B630C2F20000D0F8030000EE100A20
:103D000040F2D050C2F2000090ED001AB4EE410A29
:103D1000F1EE10FA7CD0FFE745F2B630C2F20000B7
:103D2000D0F8030000EE100AB2EE001AB4EE410A19
:103D3000F1EE10FA6CDDFFE745F2B630C2F200009A
:103D4000D0F80300FCF7D1FC41EC100B9FED381BC1
:103D500053EC112B51EC100BFCF756FC002857D1FB
:103D6000FFE704208DF80F00FFE79DF80F00012802
:103D700013DBFFE79DF80F2040F2BC51C2F20001B7
:103D800001EB820050F8040C41F82200FFE79DF897
:103D90000F0001388DF80F00E7E745F2B630C2F2A8
:103DA0000000D0F8030040F2BC51C2F200010860EC
:103DB000002002908DF80700FFE79DF80700042817
:103DC00018DCFFE700989DF8072040F2BC51C2F2D2
:103DD000000101EB820191ED001A90ED000A30EE36
:103DE000010A80ED000AFFE79DF8070001308DF819
:103DF0000700E2E7009890ED000AB1EE041A80EEA9
:103E0000010A40F25800C2F2000080ED000AFFE70C
:103E100045F2B630C2F20000D0F8030040F2D051B3
:103E2000C2F20001086004B080BD00BF00BF00BF47
:103E3000000000000000394080B588B045F28420C1
:103E4000C2F2000090F83B0038B9FFE745F2842148
:103E5000C2F200010020486141E145F28420C2F233
:103E6000000090F83B00012807D1FFE745F28421CC
:103E7000C2F200010020486130E145F28420C2F224
:103E8000000090F83B00022825D1FFE745F284208E
:103E9000C2F200000790D0ED0D0A45F22030C2F2C8
:103EA000000005909FED8F0A0EF0D0F9059890ED77
:103EB000100A40F21060C2F20000D0ED0D0A45F287
:103EC000D420C2F2000006900EF0C0F906980799BF
:103ED000006C486101E145F28420C2F2000090F8D4
:103EE0003B00032823D1FFE745F28420C2F2000003
:103EF000049090F83D1000EE101AB8EEC00ABEEE25
:103F0000001A30EE010A30EE000A9FED7B1A20EE17
:103F1000010AD0ED0D0A45F2D420C2F20000039050
:103F20000EF094F903980499006C4861D4E045F2CE
:103F30008420C2F2000090F83B00042840F0828008
:103F4000FFE745F2D030C2F2000090ED000A44F6DF
:103F50004810C2F2000090ED002A9FED631A20EE97
:103F6000010A30EE020A80ED000A90ED000AB4EE7C
:103F7000410AF1EE10FA07DDFFE744F64811C2F2FC
:103F8000000100200860FFE745F28420C2F2000033
:103F900090F83C00D8B1FFE744F64810C2F20000A8
:103FA00090ED000A1BF0F0FE9FED501A20EE010A82
:103FB000B2EE0C1A20EE010A9FED4E1A30EE010A05
:103FC00045F28420C2F2000080ED050A1AE044F6B2
:103FD0004810C2F2000090ED000A1BF0D5FE9FEDE4
:103FE000431A20EE010AB2EE0C1A20EE010A9FEDF0
:103FF000401A30EE010A45F28420C2F2000080ED42
:10400000050AFFE745F28420C2F2000090ED050AA0
:1040100090F83A1001EE101AB8EEC11AB7EE002A65
:1040200031EE021A20EE010AB1EE081A80EE010A02
:1040300080ED050A44F6E041C2F200010020C1F81B
:10404000E40048E045F28420C2F2000090F83B0012
:1040500005283FD1FFE745F28420C2F2000090ED31
:104060000D0AB1EE041AB4EE410AF1EE10FA0EDCBC
:10407000FFE745F28420C2F2000090ED0D0AB9EE90
:10408000041AB4EE410AF1EE10FA18DAFFE745F22D
:104090008420C2F200000290022180F83B10D0ED93
:1040A0000D0A45F2D420C2F2000001909FED0D0AE6
:1040B0000EF0CCF801980299006C486109E045F2D5
:1040C0008421C2F20001052081F83B0000204861F4
:1040D000FFE7FFE7FFE7FFE7FFE7FFE7FFE708B0DE
:1040E00080BD00BF00000000DB0FC940CDCC4C3EBE
:1040F000333333C1333333410000344280B584B0AD
:1041000047F29050C1F6FF700068039047F2945058
:10411000C1F6FF700068029047F29850C1F6FF7038
:10412000006801900199039808440390039888B1AE
:10413000FFE7039840F23C31C2F2000100910231E6
:1041400008220AF0EFFE00990298123104220AF0C8
:10415000E9FEFFE704B080BD80B596B0159044F647
:104160005010C2F2000011902030B3EE040A9FED0F
:10417000C11A9FEDC12A8DED122ADFEDC02AF0EEA3
:10418000420AF0EE421A0EF03BF811989DED121A19
:104190006C30B2EE040AF7EE000ADFEDB91A9FEDBB
:1041A000B92ADFEDB92ACDED132A0EF029F81198BE
:1041B0009DED122AB830B1EE040A9FEDB41ADFED7E
:1041C000B42AF0EE420AF0EE421A0EF019F81198F5
:1041D0009DED121ADDED132A00F582709FEDAD0AF8
:1041E000F0EE080ADFEDAC1A9FEDAC2A0EF008F8ED
:1041F0000020ADF85200FFE7BDF85200B0F5806F27
:104200001BDAFFE7BDF852C040F6EC03C2F2000330
:1042100003EBCC0142F20002C0F6070202EBCC0035
:1042200052F83C2043F83C2040684860FFE7BDF866
:1042300052000130ADF85200DEE70020ADF850002A
:10424000FFE7BDF85000B0F5806F1FDAFFE7BDF85B
:1042500050C040F6EC00C2F2000000EBCC0303F5C6
:10426000005144F20002C0F6070202EBCC0052F803
:104270003C204FF4005C43F80C2040684860FFE7A6
:10428000BDF850000130ADF85000DAE7FFE744F622
:104290004441C2F200018A6844F65010C2F20000A4
:1042A000C2618A69826045F28422C2F2000292F8F9
:1042B0003820027091ED010A40F25451C2F200011F
:1042C000D1F80A1001EE101A30EE410A80ED050A0D
:1042D00090ED050A9FED721AB4EE410AF1EE10FA64
:1042E0000DDDFFE744F65010C2F2000090ED050A24
:1042F0009FED6C1A30EE010A80ED050A1BE044F6D2
:104300005010C2F2000090ED050A9FED671AB4EE5E
:10431000410AF1EE10FA0DDAFFE744F65010C2F24E
:10432000000090ED050A9FED611A30EE010A80ED64
:10433000050AFFE7FFE744F65010C2F200000078DC
:1043400002281FD1FFE740F25450C2F2000040792A
:10435000C0B1FFE744F65010C2F2000090ED020A2F
:1043600090ED051A30EE410A45F28421C2F20001B7
:1043700081ED060A40F25450C2F20000D0F8060067
:10438000C861FFE745F28420C2F20000C16944F62B
:104390005012C2F20002109291618069FCF7A5F9F7
:1043A00041EC100B8DED0E0B46F6F050C2F2000002
:1043B00090ED000A8DED0D0AFEF764FEB0EE401A96
:1043C0009DED0D0A20EE010A10EE100AFCF78DF9A2
:1043D00041EC100B1BF074FC51EC100B9FEDC60B65
:1043E00053EC102BFCF72FF89DED0E0B41EC110B4D
:1043F00051EC110B53EC102BFBF77EFF41EC100B33
:1044000051EC100BFCF784F901461098416044F61A
:10441000E041C2F20001D1F8E81000EE101A9FED61
:10442000BE1A30EE010A80ED040A90ED040A9FEDF9
:10443000B61AB4EE410AF1EE10FA0DDBFFE744F6CE
:104440005010C2F2000090ED040A9FEDB21A30EE57
:10445000010A80ED040AFFE744F65010C2F20000A2
:1044600090ED040A9FEDA91AB4EE410AF1EE10FA9C
:104470002BDC1DE000800944000000000000164312
:104480000000824200007A44000080460000484359
:104490000000C8420000C84300007A4300007A458B
:1044A000000034430000B4C3000034C30000B44330
:1044B00044F65010C2F2000090ED040A9FED941AE9
:1044C00030EE010A80ED040AFFE744F65010C2F214
:1044D00000000790016945F28422C2F200020C92AA
:1044E000516390ED010AD0ED020A20300DF0AEFECE
:1044F000079890ED180A44F6E041C2F200010391DA
:10450000D1F8081101EE101A40F21061C2F2000158
:1045100091ED0D2A9FED813A82EE032A9FED803ABC
:1045200022EE032A71EE020A6C300DF08FFE07981E
:1045300090ED060AD0ED070AB8300DF087FE03991A
:10454000079890ED3E0AD1F8301181F0004100EE5D
:10455000901A00F582700DF079FE039807990C9A75
:1045600092ED010A8DED040A01F1AC02089291ED81
:104570002B0A8DED020AD0F8E810D0F8080100EE01
:10458000101A00EE900A40F25C30C2F200000CF00B
:1045900061FF9DED022A039807990C9AB0EE401A2C
:1045A0009DED040A20EE020A30EE010A81ED2B0A8D
:1045B00092ED010A8DED060A01F5A272099291EDC4
:1045C000510A8DED050AD0F82011D0F8300100EE27
:1045D000101A00EE900A40F22010C2F200000CF017
:1045E00039FF9DED052A9DED061A0799089821EEE1
:1045F000021A30EE410A81ED510A9FED420A8DED1B
:104600000A0ADFED480ACDED0B0A0BF07BFE099894
:104610009DED0A0ADDED0B0A0BF074FE0C98007894
:10462000002843D0FFE744F64440C2F2000000787F
:10463000E0B3FFE744F65010C2F20000407840B10A
:10464000FFE747F24C60C2F2000006210DF01CF9B2
:1046500015E044F65010C2F2000090ED2B2A47F20C
:104660004C60C2F200000621DFED251AB0EE610AAF
:10467000F0EE610AB0EE611A0DF078F8FFE744F64B
:104680005010C2F2000090ED510ABDEEC00A10EECB
:10469000103A684600224260026047F2B060C2F2FF
:1046A00000004FF4FF710CF06BFF1EE06846002322
:1046B0004360036047F2B060C2F200004FF4FF7144
:1046C0001A460CF05DFF47F24C60C2F20000062172
:1046D0009FED0B2AB0EE420AF0EE420AB0EE421A0B
:1046E000F0EE421A0DF042F8FFE7012019F06AFDE2
:1046F000CDE500BF00BF00BF0000000000003E404D
:10470000000000000000804600003443000034C375
:104710000000B4430000B4C38AEFB842DB0F49C0C5
:1047200000003E43000080C680B5AEB02C902B91B7
:1047300000208DF8AB002B98006808B1FFE7FFE779
:10474000FFE72C9890F85800012804D1FFE70220D9
:104750008DF8B7005DE12C99012081F85800FFE742
:10476000FFE70020259026902C980068B0F1A04F1C
:1047700006D1FFE740F20010C5F200000E9015E0F0
:104780002C98006840F20041C5F20001884207D130
:10479000FFE740F20050C5F200000E900C9003E0DD
:1047A00000200E900C90FFE70C98FFE70E9878B968
:1047B000FFE72C99C86D40F02000C865FFE72C99F1
:1047C000002081F85800FFE701208DF8B70020E1B4
:1047D0000E980BF0B7FC0D902C9800680BF0B2FC13
:1047E000002840F00281FFE70D98002840F0FD808E
:1047F000FFE72C9801680120B1F1A04F0B900CD07D
:10480000FFE72C9800684FF60071CAF6FF71084464
:10481000B0FA80F040090B90FFE70B98C10740F217
:104820000070C5F2000000291CBF40F20030C5F244
:10483000000029902B980068002872D0FFE7299883
:10484000806820F460402B9949682C9A92F83820AF
:1048500041EA42310843299988602C980168012077
:10486000B1F1A04F0A900CD0FFE72C9800684FF6EA
:104870000071CAF6FF710844B0FA80F040090A904E
:10488000FFE70A98C10740F20070C5F20000002956
:104890001CBF40F20030C5F2000040F20031C5F20A
:1048A0000001884210D1FFE74FF0A0400BF032FC2E
:1048B000089040F20010C5F200000BF02BFC0146FE
:1048C0000898084309901BE040F20040C5F2000040
:1048D0000BF020FC069040F20050C5F200000BF0F7
:1048E00019FC014606980843079040F20060C5F2A3
:1048F00000000BF00FFC0146079808430990FFE702
:10490000099868B9FFE72998806840F61F718843C5
:104910002B9A116892681143084329998860FFE730
:1049200062E02999886820F4604088602C980168CA
:104930000120B1F1A04F05900CD0FFE72C98006842
:104940004FF60071CAF6FF710844B0FA80F04009D2
:104950000590FFE70598C10740F20070C5F200001E
:1049600000291CBF40F20030C5F2000040F20031C7
:10497000C5F20001884210D1FFE74FF0A0400BF0D4
:10498000C9FB039040F20010C5F200000BF0C2FB1F
:1049900001460398084304901BE040F20040C5F232
:1049A00000000BF0B7FB019040F20050C5F2000090
:1049B0000BF0B0FB014601980843029040F2006002
:1049C000C5F200000BF0A6FB0146029808430490D4
:1049D000FFE7049838B9FFE72999886840F61F7205
:1049E00090438860FFE7FFE708E02C99C86D40F02E
:1049F0002000C86501208DF8AB00FFE7FFE72C9988
:104A0000002081F85800FFE79DF8AB008DF8B70053
:104A1000FFE79DF8B7002EB080BD000080B5C4B0A0
:104A20002490239100208DF88B001F902398C0685C
:104A30000021C4F27F01884201D0FFE700E0FFE7D8
:104A4000FFE7249890F85800012805D1FFE70220DD
:104A50008DF8970000F059BC2499012081F8580086
:104A6000FFE7FFE7249800680BF064FB002840F0A4
:104A70003884FFE72498006823990A6849680BF096
:104A800069FB249800680BF055FB1E902498006881
:104A90000BF028FB1D901E98002840F0B881FFE71E
:104AA0001D98002840F0B381FFE723988068B0F19B
:104AB000004F0ED1FFE7249800682399096800226F
:104AC0000BF066FB249800684FF000410BF00CFCE3
:104AD0000CE024980068239A116892680BF058FB48
:104AE0002498006800210BF0FFFBFFE72398406942
:104AF00024990968C96801F0180189088840219043
:104B00002398006904281CD0FFE7249800682399A3
:104B10000A680969219B0BF08DFB24980068239A91
:104B2000116992690BF0B8FB24980068239A116907
:104B3000127F013AB2FA82F2520952060BF098FB48
:104B400064E12498006800210BF0BCFA400348B9E6
:104B5000FFE72498006800210BF0B4FAC0F38460EA
:104B60001C9018E02498006800210BF0ABFA90FA32
:104B7000A0F04290429820B9FFE720208DF80F0165
:104B800005E04298B0FA80F08DF80F01FFE79DF83C
:104B90000F011C90FFE71C981B90239800684003AE
:104BA00030B9FFE723980068C0F384601A9015E0DD
:104BB0002398006890FAA0F04090409820B9FFE751
:104BC00020208DF8070105E04098B0FA80F08DF8BC
:104BD0000701FFE79DF807011A90FFE71B981A9954
:104BE000884207D1FFE724980068002211460BF0A5
:104BF00067FBFFE72498006801210BF063FA40038C
:104C000048B9FFE72498006801210BF05BFAC0F374
:104C10008460199018E02498006801210BF052FA82
:104C200090FAA0F03E903E9820B9FFE720208DF842
:104C3000FF0005E03E98B0FA80F08DF8FF00FFE736
:104C40009DF8FF001990FFE71998189023980068C5
:104C5000400330B9FFE723980068C0F384601790E1
:104C600015E02398006890FAA0F03C903C9820B999
:104C7000FFE720208DF8F70005E03C98B0FA80F0BF
:104C80008DF8F700FFE79DF8F7001790FFE71898F9
:104C90001799884207D1FFE7249800680121002274
:104CA0000BF00EFBFFE72498006802210BF00AFAD4
:104CB000400348B9FFE72498006802210BF002FA8C
:104CC000C0F38460169018E02498006802210BF06D
:104CD000F9F990FAA0F03A903A9820B9FFE720202D
:104CE0008DF8EF0005E03A98B0FA80F08DF8EF000B
:104CF000FFE79DF8EF001690FFE7169815902398B0
:104D00000068400330B9FFE723980068C0F384606F
:104D1000149015E02398006890FAA0F03890389825
:104D200020B9FFE720208DF8E70005E03898B0FAB9
:104D300080F08DF8E700FFE79DF8E7001490FFE7AB
:104D400015981499884207D1FFE72498006802213A
:104D500000220BF0B5FAFFE72498006803210BF05E
:104D6000B1F9400348B9FFE72498006803210BF02C
:104D7000A9F9C0F38460139018E024980068032117
:104D80000BF0A0F990FAA0F03690369820B9FFE722
:104D900020208DF8DF0005E03698B0FA80F08DF81D
:104DA000DF00FFE79DF8DF001390FFE713981290F4
:104DB00023980068400330B9FFE723980068C0F3E8
:104DC0008460119015E02398006890FAA0F0349068
:104DD000349820B9FFE720208DF8D70005E03498FB
:104DE000B0FA80F08DF8D700FFE79DF8D70011905A
:104DF000FFE712981199884207D1FFE724980068CD
:104E0000032100220BF05CFAFFE7FFE7FFE724989D
:104E100000680BF077F9002840F04481FFE7249800
:104E20000068239A1168D2680BF0CEF92398C06805
:104E30000021C4F27F01884240F03381FFE72498CB
:104E40000068109023980068400330B9FFE723986A
:104E50000068C0F384600F9015E02398006890FA12
:104E6000A0F03290329820B9FFE720208DF8CF00D3
:104E700005E03298B0FA80F08DF8CF00FFE79DF89A
:104E8000CF000F90FFE70F98013000F01F000928B6
:104E90007DD8FFE723980068400330B9FFE72398E7
:104EA0000068C0F384600E9015E02398006890FAC3
:104EB000A0F03090309820B9FFE720208DF8C7008F
:104EC00005E03098B0FA80F08DF8C700FFE79DF854
:104ED000C7000E90FFE70E98013000F01F0080061B
:104EE0000D9023980068400330B9FFE723980068CD
:104EF000C0F384600C9015E02398006890FAA0F04D
:104F00002E902E9820B9FFE720208DF8BF0005E0F5
:104F10002E98B0FA80F08DF8BF00FFE79DF8BF0033
:104F20000C90FFE70D980C99013101F01F0201214F
:104F3000914008430B9023980068400330B9FFE785
:104F400023980068C0F384600A9015E023980068F5
:104F500090FAA0F02C902C9820B9FFE720208DF833
:104F6000B70005E02C98B0FA80F08DF8B700FFE7A5
:104F70009DF8B7000A90FFE70B980A99013101F0FC
:104F80001F0101EB410140EA0150099082E02398A2
:104F90000068400330B9FFE723980068C0F38460DD
:104FA000089015E02398006890FAA0F02A902A98BB
:104FB00020B9FFE720208DF8AF0005E02A98B0FA6D
:104FC00080F08DF8AF00FFE79DF8AF000890FFE795
:104FD0000898013000F01F008006079023980068B1
:104FE000400330B9FFE723980068C0F3846006905F
:104FF00015E02398006890FAA0F02890289820B92E
:10500000FFE720208DF8A70005E02898B0FA80F08F
:105010008DF8A700FFE79DF8A7000690FFE7079827
:105020000699013101F01F020121914008430590CA
:1050300023980068400330B9FFE723980068C0F365
:105040008460049015E02398006890FAA0F0269000
:10505000269820B9FFE720208DF89F0005E02698CC
:10506000B0FA80F08DF89F00FFE79DF89F00049054
:10507000FFE705990498013000F01F0000EB4002A3
:105080000020CFF6206000EB0250084340F0007093
:105090000990FFE710980999239A92680BF078F825
:1050A000FFE7FFE72398408848F20801084200F034
:1050B0001781FFE7249801680120B1F1A04F039008
:1050C0000CD0FFE7249800684FF60071CAF6FF7114
:1050D0000844B0FA80F040090390FFE70398C10745
:1050E00040F20070C5F2000000291CBF40F2003001
:1050F000C5F200000AF0DEFF20902398006840F21D
:105100000001CCF22131884208D0FFE723980068E3
:105110001021C9F2C00188425AD1FFE79DF88200F0
:105120000006002854D4FFE724980068B0F1A04F8F
:1051300009D0FFE72498006840F20061C5F2000141
:10514000884244D1FFE7249801680120B1F1A04FC3
:1051500002900CD0FFE7249800684FF60071CAF661
:10516000FF710844B0FA80F040090290FFE702980E
:10517000C10740F20070C5F2000000291CBF40F2D8
:105180000030C5F20000209941F400010BF044F812
:1051900040F2FC10C2F2000000684FEA901042F6A4
:1051A0006351C0F23E51A0FB01104FEA901000EB9A
:1051B00040014FF00C0000EB81001F90FFE71F98AB
:1051C00020B1FFE71F9801381F90F8E7FFE786E05E
:1051D000239800680021CCF2527188423ED1FFE74B
:1051E0009DF88300C007C8BBFFE72498006840F221
:1051F0000011C5F2000188422FD0FFE72498006813
:1052000040F20051C5F20001884226D0FFE7249801
:1052100001680120B1F1A04F01900CD0FFE7249864
:1052200000684FF60071CAF6FF710844B0FA80F0CA
:1052300040090190FFE70198C10740F20070C5F2F4
:10524000000000291CBF40F20030C5F20000209988
:1052500041F080710AF0E0FFFFE73FE0239800682B
:105260000021CCF68431884236D1FFE79DF88200D8
:105270004006002830D4FFE72498006840F200116F
:10528000C5F20001884226D0FFE72498016801207A
:10529000B1F1A04F00900CD0FFE7249800684FF6C2
:1052A0000071CAF6FF710844B0FA80F0400900901E
:1052B000FFE70098C10740F20070C5F20000002926
:1052C0001CBF40F20030C5F20000209941F480017B
:1052D0000AF0A2FFFFE700E0FFE7FFE7FFE7FFE7D5
:1052E00008E02499C86D40F02000C86501208DF8C1
:1052F0008B00FFE7FFE72499002081F85800FFE7C3
:105300009DF88B008DF89700FFE79DF8970044B05B
:1053100080BD000080B58EB00C9000208DF82F006D
:1053200007900C9820B9FFE701208DF83700DCE1E9
:105330000C98406940B1FFE70C9890F824000128D0
:1053400001D1FFE7FFE7FFE70C98C06D50B9FFE719
:105350000C9800F0CFF90C99002008660C9981F8A0
:105360005800FFE70C9800680AF0C4FE28B1FFE778
:105370000C9800680AF082FEFFE70C9800680AF0BB
:10538000D1FEF0B9FFE70C9800680AF083FE40F206
:10539000FC10C2F200000068800942F66351C0F2BE
:1053A0003E51A0FB01108109022000EB4100079053
:1053B000FFE7079820B1FFE7079801380790F8E763
:1053C000FFE70C9800680AF0ADFE70B9FFE70C9992
:1053D000C86D40F01000C8650C99086E40F00100DF
:1053E000086601208DF82F00FFE70C9800680AF08E
:1053F000A1FE09900C98C06DC006002800F16781DD
:10540000FFE70998002840F06281FFE70C98C06D23
:1054100040F0020020F480700C99C8650C98006878
:105420000AF070FE00287CD1FFE70C98016801208B
:10543000B1F1A04F06900CD0FFE70C9800684FF632
:105440000071CAF6FF710844B0FA80F04009069076
:10545000FFE70698C10740F20070C5F2000000297E
:105460001CBF40F20030C5F2000040F20031C5F22E
:105470000001884210D1FFE74FF0A0400AF042FE41
:10548000049040F20010C5F200000AF03BFE014615
:105490000498084305901BE040F20040C5F200006C
:1054A0000AF030FE029040F20050C5F200000AF00F
:1054B00029FE014602980843039040F20060C5F2BD
:1054C00000000AF01FFE0146039808430590FFE71D
:1054D000059828BBFFE70C9801680120B1F1A04FA7
:1054E00001900CD0FFE70C9800684FF60071CAF6E7
:1054F000FF710844B0FA80F040090190FFE701987D
:10550000C10740F20070C5F2000000291CBF40F244
:105510000030C5F200000C9949680AF06FFEFFE701
:10552000FFE70C994A7FC86B40EA42308A68CB6833
:105530001843104391F8241040EA01400A900C9857
:1055400090F8240001280BD1FFE70C98816A002015
:10555000CFF6FE7000EB41410A9808430A90FFE73E
:105560000C98C06A50B1FFE70C99C86A096B00F447
:10557000787001430A9808430A90FFE70C98006886
:10558000C06844F20701CFF6F07108400A99084359
:105590000C990968C8600C980068006920F04060A8
:1055A0000C9A1168526B104308610C9800680AF05D
:1055B00099FD08900998002868D1FFE7089800280D
:1055C00064D1FFE70C99087F91F83810800340EA16
:1055D00041000A900C980068C06844F202018843B8
:1055E0000A9908430C990968C8600C980069A0B131
:1055F000FFE70C980168086940F4803008610C9856
:105600000068D0F8C00043F6FF7188430C9A116817
:1056100012691043C1F8C00011E00C9801680869D4
:1056200020F4803008610C980068D0F8C00043F680
:10563000FF7188430C990968C1F8C000FFE70C9816
:1056400090F84000012819D1FFE70C980068006924
:1056500040F2FD7120EA01020C9B1968586CD3F8E6
:1056600048E0D3F84CC040EA0E0040EA0C001B6D45
:105670001843104340F00100086106E00C980168EF
:10568000086920F001000861FFE7FFE70C98406916
:1056900001280CD1FFE70C980068006B20F00F0088
:1056A0000C9A1168126A013A1043086306E00C98DC
:1056B0000168086B20F00F000863FFE70C98C06DCD
:1056C00040F0010020F002000C99C86508E00C9938
:1056D000C86D40F01000C86501208DF82F00FFE76D
:1056E0009DF82F008DF83700FFE79DF837000EB0CA
:1056F00080BD000080B59EB01D9000201C901B90C6
:105700001A901990189003A85421FAF7CBFD1D9810
:10571000006840F20041C5F2000188423AD1FFE73B
:105720004FF4803003904FF00040159003A804F030
:10573000F1F918B1FFE7FDF7C7FFFFE7FFE741F217
:105740004C00C4F20200016841F48041016000682D
:1057500000F4804002900298FFE7FFE741F24C001E
:10576000C4F20200016841F010010160006800F01D
:10577000100001900198FFE78020189003201990F5
:1057800000201A9041F20000C4F6000018A902F0AF
:10579000F9F8FFE71EB080BD87B00690059104922E
:1057A00000208DF80F001F2002909DF81400C00704
:1057B00020B9FFE701208DF80F004BE0FFE70299C9
:1057C000481E02900020019051B1FFE70598029910
:1057D00001F01F0120FA01F1012088430190FFE749
:1057E0000198C00708B1FFE7E9E70498009018287E
:1057F0002BD80099DFE801F028292929292929290E
:105800001F29292929292929162929292929292925
:105810000D000298072804D3FFE701208DF80F0040
:10582000FFE716E00298082804D3FFE701208DF86F
:105830000F00FFE70DE00298102804D3FFE70120D6
:105840008DF80F00FFE704E003E001208DF80F0062
:10585000FFE7FFE79DF80F0078B9FFE70598069985
:105860000968486106980068806820F0180004996B
:105870000843069909688860FFE79DF80F0007B0A4
:105880007047000080B582B00090009820B9FFE713
:1058900001208DF8070057E00098407F38B9FFE7F6
:1058A000009900200877009800F052F8FFE700996F
:1058B000022048770098007980B9FFE700980168D6
:1058C00041F6B750C0F2C140486100980068806856
:1058D00020F018000099096888600BE00098816842
:1058E000C268FFF759FF20B1FFE701208DF80700DC
:1058F0002AE0FFE70098407930B9FFE70098016897
:105900004FF0FF30086104E0009801680069086109
:10591000FFE700980068806820F06000009A116836
:1059200052691043886000980068806820F0800009
:10593000009A1168926910438860009901204877A5
:1059400000208DF80700FFE79DF8070002B080BD3A
:1059500082B001900198006843F20001C4F2020194
:10596000884210D1FFE7FFE741F24800C4F202008D
:10597000016841F480510160006800F4805000909B
:105980000098FFE7FFE702B07047000080B58AB0DB
:1059900008900791069200208DF81700089818B11A
:1059A000FFE7079820B9FFE701208DF82700B5E150
:1059B0000798C069012801D1FFE7FFE707988068D1
:1059C000042801D1FFE706E007984069022801D1C9
:1059D000FFE7FFE7FFE7FFE708984079012804D1D8
:1059E000FFE702208DF8270098E10899012048710F
:1059F000FFE7FFE7089902200871079880680428EC
:105A000078D1FFE702F0ACF90290069848BBFFE7B7
:105A1000FFE708980068406B000400281BD5FFE7EB
:105A200002F09EF90299401A022813D3FFE7089862
:105A30000068406B000400280BD5FFE7089908694F
:105A400040F0080008610899032008718DF82700CC
:105A500064E1FFE7DDE70798406A08990968086490
:105A600026E0FFE708980068406BC00FD0B1FFE761
:105A700002F076F90299401A022812D3FFE708983B
:105A80000068406BC00F58B1FFE70899086940F003
:105A9000080008610899032008718DF827003DE18E
:105AA000FFE7DFE70798406A089909684864FFE75D
:105AB00008980068806C069901F0100240F2FF31EE
:105AC000914088430799896A914008430899096879
:105AD000886408980068C06C069901F01002FF21E4
